{
  "contractName": "RandomNumberConsumer",
  "abi": [
    {
      "inputs": [],
      "stateMutability": "nonpayable",
      "type": "constructor"
    },
    {
      "anonymous": false,
      "inputs": [
        {
          "indexed": true,
          "internalType": "bytes32",
          "name": "requestId",
          "type": "bytes32"
        },
        {
          "indexed": true,
          "internalType": "uint256",
          "name": "result",
          "type": "uint256"
        },
        {
          "indexed": true,
          "internalType": "address",
          "name": "usersAddress",
          "type": "address"
        }
      ],
      "name": "DiceLanded",
      "type": "event"
    },
    {
      "inputs": [],
      "name": "owner",
      "outputs": [
        {
          "internalType": "address",
          "name": "",
          "type": "address"
        }
      ],
      "stateMutability": "view",
      "type": "function",
      "constant": true
    },
    {
      "inputs": [],
      "name": "randomResult",
      "outputs": [
        {
          "internalType": "uint256",
          "name": "",
          "type": "uint256"
        }
      ],
      "stateMutability": "view",
      "type": "function",
      "constant": true
    },
    {
      "inputs": [
        {
          "internalType": "bytes32",
          "name": "requestId",
          "type": "bytes32"
        },
        {
          "internalType": "uint256",
          "name": "randomness",
          "type": "uint256"
        }
      ],
      "name": "rawFulfillRandomness",
      "outputs": [],
      "stateMutability": "nonpayable",
      "type": "function"
    },
    {
      "stateMutability": "payable",
      "type": "receive",
      "payable": true
    },
    {
      "inputs": [
        {
          "internalType": "uint256",
          "name": "usersPick",
          "type": "uint256"
        }
      ],
      "name": "getRandomNumber",
      "outputs": [
        {
          "internalType": "bytes32",
          "name": "requestId",
          "type": "bytes32"
        }
      ],
      "stateMutability": "payable",
      "type": "function",
      "payable": true
    },
    {
      "inputs": [
        {
          "internalType": "uint256",
          "name": "withdrawAmount",
          "type": "uint256"
        }
      ],
      "name": "claimBalance",
      "outputs": [],
      "stateMutability": "payable",
      "type": "function",
      "payable": true
    },
    {
      "inputs": [
        {
          "internalType": "address",
          "name": "adres",
          "type": "address"
        }
      ],
      "name": "changeOwner",
      "outputs": [],
      "stateMutability": "payable",
      "type": "function",
      "payable": true
    }
  ],
  "bytecode": "0x60c0604052737d477dd546090ebf7db262ed23cab058623b97b86000806101000a81548173ffffffffffffffffffffffffffffffffffffffff021916908373ffffffffffffffffffffffffffffffffffffffff160217905550670de0b6b3a7640000600155600160025573dde6543628a7b6aa43aa8af2d4280cac8a7b29b3600660006101000a81548173ffffffffffffffffffffffffffffffffffffffff021916908373ffffffffffffffffffffffffffffffffffffffff1602179055503480156100ca57600080fd5b50738c7382f9d8f56b33781fe506e897a4f1e2d1725573326c977e6efc84e512bb9c30f76e30c160ed06fb8173ffffffffffffffffffffffffffffffffffffffff1660a08173ffffffffffffffffffffffffffffffffffffffff1660601b815250508073ffffffffffffffffffffffffffffffffffffffff1660808173ffffffffffffffffffffffffffffffffffffffff1660601b8152505050507f6e75b569a01ef56d18cab6a8e71e6600d6ce853834d4a5748b720d06f878b3a460001b600481905550655af3107a400060058190555060805160601c60a05160601c610f1c6101d56000396000818161017a015261060901526000818161031601526105cd0152610f1c6000f3fe6080604052600436106100595760003560e01c806342619f66146100655780638da5cb5b1461009057806394985ddd146100bb578063a6f9dae1146100e4578063b37217a414610100578063e9fad3961461013057610060565b3661006057005b600080fd5b34801561007157600080fd5b5061007a61014c565b6040516100879190610bb3565b60405180910390f35b34801561009c57600080fd5b506100a5610152565b6040516100b29190610a71565b60405180910390f35b3480156100c757600080fd5b506100e260048036038101906100dd91906108ae565b610178565b005b6100fe60048036038101906100f99190610854565b61023b565b005b61011a600480360381019061011591906108ee565b61030f565b6040516101279190610aca565b60405180910390f35b61014a600480360381019061014591906108ee565b610428565b005b60075481565b600660009054906101000a900473ffffffffffffffffffffffffffffffffffffffff1681565b7f000000000000000000000000000000000000000000000000000000000000000073ffffffffffffffffffffffffffffffffffffffff163373ffffffffffffffffffffffffffffffffffffffff1614610206576040517f08c379a00000000000000000000000000000000000000000000000000000000081526004016101fd90610b73565b60405180910390fd5b610237828260008054906101000a900473ffffffffffffffffffffffffffffffffffffffff16600154600254610502565b5050565b600660009054906101000a900473ffffffffffffffffffffffffffffffffffffffff1673ffffffffffffffffffffffffffffffffffffffff163373ffffffffffffffffffffffffffffffffffffffff16146102cb576040517f08c379a00000000000000000000000000000000000000000000000000000000081526004016102c290610b93565b60405180910390fd5b80600660006101000a81548173ffffffffffffffffffffffffffffffffffffffff021916908373ffffffffffffffffffffffffffffffffffffffff16021790555050565b60006005547f000000000000000000000000000000000000000000000000000000000000000073ffffffffffffffffffffffffffffffffffffffff166370a08231306040518263ffffffff1660e01b815260040161036d9190610a71565b60206040518083038186803b15801561038557600080fd5b505afa158015610399573d6000803e3d6000fd5b505050506040513d601f19601f820116820180604052508101906103bd919061091b565b10156103fe576040517f08c379a00000000000000000000000000000000000000000000000000000000081526004016103f590610b53565b60405180910390fd5b60003390506000349050600061041b6004546005548585896105c9565b9050809350505050919050565b600660009054906101000a900473ffffffffffffffffffffffffffffffffffffffff1673ffffffffffffffffffffffffffffffffffffffff163373ffffffffffffffffffffffffffffffffffffffff16146104b8576040517f08c379a00000000000000000000000000000000000000000000000000000000081526004016104af90610b93565b60405180910390fd5b3373ffffffffffffffffffffffffffffffffffffffff166108fc829081150290604051600060405180830381858888f193505050501580156104fe573d6000803e3d6000fd5b5050565b60006025856105119190610d44565b9050806007819055508181141561057c5760008490508073ffffffffffffffffffffffffffffffffffffffff166108fc60248661054e9190610c51565b9081150290604051600060405180830381858888f19350505050158015610579573d6000803e3d6000fd5b50505b8373ffffffffffffffffffffffffffffffffffffffff1681877f4c09d823a1ee96e5566be4a6aedd6ec37faf9c42a448d66e0ceea551c1a37d3460405160405180910390a4505050505050565b60007f000000000000000000000000000000000000000000000000000000000000000073ffffffffffffffffffffffffffffffffffffffff16634000aea07f00000000000000000000000000000000000000000000000000000000000000008789600060405160200161063d929190610ae5565b6040516020818303038152906040526040518463ffffffff1660e01b815260040161066a93929190610a8c565b602060405180830381600087803b15801561068457600080fd5b505af1158015610698573d6000803e3d6000fd5b505050506040513d601f19601f820116820180604052508101906106bc9190610881565b5060006106df87600030600360008c81526020019081526020016000205461077c565b9050846000806101000a81548173ffffffffffffffffffffffffffffffffffffffff021916908373ffffffffffffffffffffffffffffffffffffffff16021790555083600181905550826002819055506001600360008981526020019081526020016000205461074f9190610bfb565b600360008981526020019081526020016000208190555061077087826107b8565b91505095945050505050565b6000848484846040516020016107959493929190610b0e565b6040516020818303038152906040528051906020012060001c9050949350505050565b600082826040516020016107cd929190610a45565b60405160208183030381529060405280519060200120905092915050565b6000813590506107fa81610e8a565b92915050565b60008151905061080f81610ea1565b92915050565b60008135905061082481610eb8565b92915050565b60008135905061083981610ecf565b92915050565b60008151905061084e81610ecf565b92915050565b60006020828403121561086a57610869610dd3565b5b6000610878848285016107eb565b91505092915050565b60006020828403121561089757610896610dd3565b5b60006108a584828501610800565b91505092915050565b600080604083850312156108c5576108c4610dd3565b5b60006108d385828601610815565b92505060206108e48582860161082a565b9150509250929050565b60006020828403121561090457610903610dd3565b5b60006109128482850161082a565b91505092915050565b60006020828403121561093157610930610dd3565b5b600061093f8482850161083f565b91505092915050565b61095181610cab565b82525050565b61096081610cc9565b82525050565b61097761097282610cc9565b610d30565b82525050565b600061098882610bce565b6109928185610bd9565b93506109a2818560208601610cfd565b6109ab81610dd8565b840191505092915050565b60006109c3602b83610bea565b91506109ce82610de9565b604082019050919050565b60006109e6601f83610bea565b91506109f182610e38565b602082019050919050565b6000610a09600a83610bea565b9150610a1482610e61565b602082019050919050565b610a2881610cf3565b82525050565b610a3f610a3a82610cf3565b610d3a565b82525050565b6000610a518285610966565b602082019150610a618284610a2e565b6020820191508190509392505050565b6000602082019050610a866000830184610948565b92915050565b6000606082019050610aa16000830186610948565b610aae6020830185610a1f565b8181036040830152610ac0818461097d565b9050949350505050565b6000602082019050610adf6000830184610957565b92915050565b6000604082019050610afa6000830185610957565b610b076020830184610a1f565b9392505050565b6000608082019050610b236000830187610957565b610b306020830186610a1f565b610b3d6040830185610948565b610b4a6060830184610a1f565b95945050505050565b60006020820190508181036000830152610b6c816109b6565b9050919050565b60006020820190508181036000830152610b8c816109d9565b9050919050565b60006020820190508181036000830152610bac816109fc565b9050919050565b6000602082019050610bc86000830184610a1f565b92915050565b600081519050919050565b600082825260208201905092915050565b600082825260208201905092915050565b6000610c0682610cf3565b9150610c1183610cf3565b9250827fffffffffffffffffffffffffffffffffffffffffffffffffffffffffffffffff03821115610c4657610c45610d75565b5b828201905092915050565b6000610c5c82610cf3565b9150610c6783610cf3565b9250817fffffffffffffffffffffffffffffffffffffffffffffffffffffffffffffffff0483118215151615610ca057610c9f610d75565b5b828202905092915050565b6000610cb682610cd3565b9050919050565b60008115159050919050565b6000819050919050565b600073ffffffffffffffffffffffffffffffffffffffff82169050919050565b6000819050919050565b60005b83811015610d1b578082015181840152602081019050610d00565b83811115610d2a576000848401525b50505050565b6000819050919050565b6000819050919050565b6000610d4f82610cf3565b9150610d5a83610cf3565b925082610d6a57610d69610da4565b5b828206905092915050565b7f4e487b7100000000000000000000000000000000000000000000000000000000600052601160045260246000fd5b7f4e487b7100000000000000000000000000000000000000000000000000000000600052601260045260246000fd5b600080fd5b6000601f19601f8301169050919050565b7f4e6f7420656e6f756768204c494e4b202d2066696c6c20636f6e74726163742060008201527f7769746820666175636574000000000000000000000000000000000000000000602082015250565b7f4f6e6c7920565246436f6f7264696e61746f722063616e2066756c66696c6c00600082015250565b7f41444d494e5f4f4e4c5900000000000000000000000000000000000000000000600082015250565b610e9381610cab565b8114610e9e57600080fd5b50565b610eaa81610cbd565b8114610eb557600080fd5b50565b610ec181610cc9565b8114610ecc57600080fd5b50565b610ed881610cf3565b8114610ee357600080fd5b5056fea26469706673582212205043ad5a84a58e82cce933b34bd93660da2f4478c6547bdfea54f5b0ba3a535b64736f6c63430008070033",
  "immutableReferences": {
    "102": [
      {
        "length": 32,
        "start": 790
      },
      {
        "length": 32,
        "start": 1485
      }
    ],
    "104": [
      {
        "length": 32,
        "start": 378
      },
      {
        "length": 32,
        "start": 1545
      }
    ]
  },
  "source": "// SPDX-License-Identifier: MIT\npragma solidity ^0.8.7;\n\nimport \"@chainlink/contracts/src/v0.8/VRFConsumerBase.sol\";\n\n \ncontract RandomNumberConsumer is VRFConsumerBase {\n    \n    bytes32 internal keyHash;\n    uint256 internal fee;\n    address public owner=0xDDE6543628a7B6aa43aa8AF2d4280CAc8A7b29B3;\n    uint256 public randomResult;\n\n    modifier onlyOwner{\n        require(\n            msg.sender==owner,\"ADMIN_ONLY\"\n        );\n        _;\n    }\n    /**\n     * Constructor inherits VRFConsumerBase\n     * \n     * Network: Kovan\n     * Chainlink VRF Coordinator address: 0xdD3782915140c8f3b190B5D67eAc6dc5760C46E9\n     * LINK token address:                0xa36085F69e2889c224210F603D836748e7dC0088\n     * Key Hash: 0x6c3699283bda56ad74f6b855546325b68d482e983852a7a82979cc4807b641f4\n     \n     */\n     event DiceLanded(bytes32 indexed requestId, uint256 indexed result,address indexed usersAddress);\n    constructor() \n        VRFConsumerBase(\n            0x8C7382F9D8f56b33781fE506E897a4F1e2d17255, // VRF Coordinator\n            0x326C977E6efc84E512bB9C30f76E30c160eD06FB  // LINK Token\n        )\n    {\n        keyHash = \t0x6e75b569a01ef56d18cab6a8e71e6600d6ce853834d4a5748b720d06f878b3a4;\n        fee = 0.0001 * 10 ** 18; // 0.0001 LINK\n    }\n    \n    /** \n     * Requests randomness \n     */\n\n     receive() external payable {\n    }\n    function getRandomNumber(uint256 usersPick) public payable returns (bytes32 requestId) {\n        require(LINK.balanceOf(address(this)) >= fee, \"Not enough LINK - fill contract with faucet\");\n        address usersAddress=msg.sender;\n        uint userValue=msg.value;\n        bytes32 _requestId =requestRandomness(keyHash, fee,usersAddress,userValue,usersPick);\n        return _requestId;\n    }\n    function claimBalance(uint withdrawAmount) external payable onlyOwner{\n        payable(msg.sender).transfer(withdrawAmount);\n    }\n    function changeOwner(address adres) external payable onlyOwner{\n        owner=adres;\n    }\n    /**\n     * Callback function used by VRF Coordinator\n     */\n    function fulfillRandomness(bytes32 requestId, uint256 randomness,address usersAddress,uint userValue,uint256 usersPick) internal override {\n    uint256 d20Value = randomness % 37;\n    randomResult=d20Value;\n    if(d20Value==usersPick){\n    address payable wallet = payable(usersAddress);\n    wallet.transfer(userValue*36);\n    }\n    emit DiceLanded(requestId, d20Value,usersAddress);\n    }\n\n    \n}\n",
  "sourcePath": "/Users/timonchapuis/Desktop/roulette-app/Contract/contracts/RandomNumberConsumer.sol",
  "compiler": {
    "name": "solc",
    "version": "0.8.7+commit.e28d00a7.Emscripten.clang"
  },
  "schemaVersion": "3.4.3",
  "updatedAt": "2021-12-06T10:06:08.779Z",
  "networkType": "ethereum",
  "devdoc": {
    "kind": "dev",
    "methods": {},
    "version": 1
  },
  "userdoc": {
    "events": {
      "DiceLanded(bytes32,uint256,address)": {
        "notice": "Constructor inherits VRFConsumerBase  Network: Kovan Chainlink VRF Coordinator address: 0xdD3782915140c8f3b190B5D67eAc6dc5760C46E9 LINK token address:                0xa36085F69e2889c224210F603D836748e7dC0088 Key Hash: 0x6c3699283bda56ad74f6b855546325b68d482e983852a7a82979cc4807b641f4"
      }
    },
    "kind": "user",
    "methods": {},
    "version": 1
  }
}