{
  "contractName": "RandomNumberConsumer",
  "abi": [
    {
      "inputs": [],
      "stateMutability": "nonpayable",
      "type": "constructor"
    },
    {
      "anonymous": false,
      "inputs": [
        {
          "indexed": true,
          "internalType": "bytes32",
          "name": "requestId",
          "type": "bytes32"
        },
        {
          "indexed": true,
          "internalType": "uint256",
          "name": "result",
          "type": "uint256"
        },
        {
          "indexed": true,
          "internalType": "address",
          "name": "usersAddress",
          "type": "address"
        }
      ],
      "name": "DiceLanded",
      "type": "event"
    },
    {
      "inputs": [],
      "name": "randomResult",
      "outputs": [
        {
          "internalType": "uint256",
          "name": "",
          "type": "uint256"
        }
      ],
      "stateMutability": "view",
      "type": "function",
      "constant": true
    },
    {
      "inputs": [
        {
          "internalType": "bytes32",
          "name": "requestId",
          "type": "bytes32"
        },
        {
          "internalType": "uint256",
          "name": "randomness",
          "type": "uint256"
        }
      ],
      "name": "rawFulfillRandomness",
      "outputs": [],
      "stateMutability": "nonpayable",
      "type": "function"
    },
    {
      "stateMutability": "payable",
      "type": "receive",
      "payable": true
    },
    {
      "inputs": [
        {
          "internalType": "uint256",
          "name": "usersPick",
          "type": "uint256"
        }
      ],
      "name": "getRandomNumber",
      "outputs": [
        {
          "internalType": "bytes32",
          "name": "requestId",
          "type": "bytes32"
        }
      ],
      "stateMutability": "payable",
      "type": "function",
      "payable": true
    }
  ],
  "bytecode": "0x60c060405273318a41870c948afb035f7b75f532c5a617564e366000806101000a81548173ffffffffffffffffffffffffffffffffffffffff021916908373ffffffffffffffffffffffffffffffffffffffff1602179055506000600155600060025534801561006e57600080fd5b50738c7382f9d8f56b33781fe506e897a4f1e2d1725573326c977e6efc84e512bb9c30f76e30c160ed06fb8173ffffffffffffffffffffffffffffffffffffffff1660a08173ffffffffffffffffffffffffffffffffffffffff1660601b815250508073ffffffffffffffffffffffffffffffffffffffff1660808173ffffffffffffffffffffffffffffffffffffffff1660601b8152505050507f6e75b569a01ef56d18cab6a8e71e6600d6ce853834d4a5748b720d06f878b3a460001b600481905550655af3107a400060058190555060805160601c60a05160601c610bff6101786000396000818160d001526103ff01526000818161019801526103c30152610bff6000f3fe6080604052600436106100385760003560e01c806342619f661461004457806394985ddd1461006f578063b37217a4146100985761003f565b3661003f57005b600080fd5b34801561005057600080fd5b506100596100c8565b60405161006691906108d6565b60405180910390f35b34801561007b57600080fd5b5061009660048036038101906100919190610614565b6100ce565b005b6100b260048036038101906100ad9190610654565b610191565b6040516100bf919061080d565b60405180910390f35b60065481565b7f000000000000000000000000000000000000000000000000000000000000000073ffffffffffffffffffffffffffffffffffffffff163373ffffffffffffffffffffffffffffffffffffffff161461015c576040517f08c379a0000000000000000000000000000000000000000000000000000000008152600401610153906108b6565b60405180910390fd5b61018d828260008054906101000a900473ffffffffffffffffffffffffffffffffffffffff166001546002546102aa565b5050565b60006005547f000000000000000000000000000000000000000000000000000000000000000073ffffffffffffffffffffffffffffffffffffffff166370a08231306040518263ffffffff1660e01b81526004016101ef91906107b4565b60206040518083038186803b15801561020757600080fd5b505afa15801561021b573d6000803e3d6000fd5b505050506040513d601f19601f8201168201806040525081019061023f9190610681565b1015610280576040517f08c379a000000000000000000000000000000000000000000000000000000000815260040161027790610896565b60405180910390fd5b60003390506000349050600061029d600454600554858589610371565b9050809350505050919050565b60006025856102b99190610a67565b905080600681905550818114156103245760008490508073ffffffffffffffffffffffffffffffffffffffff166108fc6024866102f69190610974565b9081150290604051600060405180830381858888f19350505050158015610321573d6000803e3d6000fd5b50505b8373ffffffffffffffffffffffffffffffffffffffff1681877f4c09d823a1ee96e5566be4a6aedd6ec37faf9c42a448d66e0ceea551c1a37d3460405160405180910390a4505050505050565b6000836000806101000a81548173ffffffffffffffffffffffffffffffffffffffff021916908373ffffffffffffffffffffffffffffffffffffffff16021790555082600181905550816002819055507f000000000000000000000000000000000000000000000000000000000000000073ffffffffffffffffffffffffffffffffffffffff16634000aea07f000000000000000000000000000000000000000000000000000000000000000087896000604051602001610433929190610828565b6040516020818303038152906040526040518463ffffffff1660e01b8152600401610460939291906107cf565b602060405180830381600087803b15801561047a57600080fd5b505af115801561048e573d6000803e3d6000fd5b505050506040513d601f19601f820116820180604052508101906104b291906105e7565b5060006104d587600030600360008c815260200190815260200160002054610524565b9050600160036000898152602001908152602001600020546104f7919061091e565b60036000898152602001908152602001600020819055506105188782610560565b91505095945050505050565b60008484848460405160200161053d9493929190610851565b6040516020818303038152906040528051906020012060001c9050949350505050565b60008282604051602001610575929190610788565b60405160208183030381529060405280519060200120905092915050565b6000815190506105a281610b84565b92915050565b6000813590506105b781610b9b565b92915050565b6000813590506105cc81610bb2565b92915050565b6000815190506105e181610bb2565b92915050565b6000602082840312156105fd576105fc610af6565b5b600061060b84828501610593565b91505092915050565b6000806040838503121561062b5761062a610af6565b5b6000610639858286016105a8565b925050602061064a858286016105bd565b9150509250929050565b60006020828403121561066a57610669610af6565b5b6000610678848285016105bd565b91505092915050565b60006020828403121561069757610696610af6565b5b60006106a5848285016105d2565b91505092915050565b6106b7816109ce565b82525050565b6106c6816109ec565b82525050565b6106dd6106d8826109ec565b610a53565b82525050565b60006106ee826108f1565b6106f881856108fc565b9350610708818560208601610a20565b61071181610afb565b840191505092915050565b6000610729602b8361090d565b915061073482610b0c565b604082019050919050565b600061074c601f8361090d565b915061075782610b5b565b602082019050919050565b61076b81610a16565b82525050565b61078261077d82610a16565b610a5d565b82525050565b600061079482856106cc565b6020820191506107a48284610771565b6020820191508190509392505050565b60006020820190506107c960008301846106ae565b92915050565b60006060820190506107e460008301866106ae565b6107f16020830185610762565b818103604083015261080381846106e3565b9050949350505050565b600060208201905061082260008301846106bd565b92915050565b600060408201905061083d60008301856106bd565b61084a6020830184610762565b9392505050565b600060808201905061086660008301876106bd565b6108736020830186610762565b61088060408301856106ae565b61088d6060830184610762565b95945050505050565b600060208201905081810360008301526108af8161071c565b9050919050565b600060208201905081810360008301526108cf8161073f565b9050919050565b60006020820190506108eb6000830184610762565b92915050565b600081519050919050565b600082825260208201905092915050565b600082825260208201905092915050565b600061092982610a16565b915061093483610a16565b9250827fffffffffffffffffffffffffffffffffffffffffffffffffffffffffffffffff0382111561096957610968610a98565b5b828201905092915050565b600061097f82610a16565b915061098a83610a16565b9250817fffffffffffffffffffffffffffffffffffffffffffffffffffffffffffffffff04831182151516156109c3576109c2610a98565b5b828202905092915050565b60006109d9826109f6565b9050919050565b60008115159050919050565b6000819050919050565b600073ffffffffffffffffffffffffffffffffffffffff82169050919050565b6000819050919050565b60005b83811015610a3e578082015181840152602081019050610a23565b83811115610a4d576000848401525b50505050565b6000819050919050565b6000819050919050565b6000610a7282610a16565b9150610a7d83610a16565b925082610a8d57610a8c610ac7565b5b828206905092915050565b7f4e487b7100000000000000000000000000000000000000000000000000000000600052601160045260246000fd5b7f4e487b7100000000000000000000000000000000000000000000000000000000600052601260045260246000fd5b600080fd5b6000601f19601f8301169050919050565b7f4e6f7420656e6f756768204c494e4b202d2066696c6c20636f6e74726163742060008201527f7769746820666175636574000000000000000000000000000000000000000000602082015250565b7f4f6e6c7920565246436f6f7264696e61746f722063616e2066756c66696c6c00600082015250565b610b8d816109e0565b8114610b9857600080fd5b50565b610ba4816109ec565b8114610baf57600080fd5b50565b610bbb81610a16565b8114610bc657600080fd5b5056fea264697066735822122006c303c2faba9c91ed063fcb9117fe280d69113f6cdc35d2ef11cfead612f72064736f6c63430008070033",
  "immutableReferences": {
    "102": [
      {
        "length": 32,
        "start": 408
      },
      {
        "length": 32,
        "start": 963
      }
    ],
    "104": [
      {
        "length": 32,
        "start": 208
      },
      {
        "length": 32,
        "start": 1023
      }
    ]
  },
  "source": "// SPDX-License-Identifier: MIT\npragma solidity ^0.8.7;\n\nimport \"@chainlink/contracts/src/v0.8/VRFConsumerBase.sol\";\n\n/**\n * THIS IS AN EXAMPLE CONTRACT WHICH USES HARDCODED VALUES FOR CLARITY.\n * PLEASE DO NOT USE THIS CODE IN PRODUCTION.\n */\n\n/**\n * Request testnet LINK and ETH here: https://faucets.chain.link/\n * Find information on LINK Token Contracts and get the latest ETH and LINK faucets here: https://docs.chain.link/docs/link-token-contracts/\n */\n \ncontract RandomNumberConsumer is VRFConsumerBase {\n    \n    bytes32 internal keyHash;\n    uint256 internal fee;\n    \n    uint256 public randomResult;\n    \n    /**\n     * Constructor inherits VRFConsumerBase\n     * \n     * Network: Kovan\n     * Chainlink VRF Coordinator address: 0xdD3782915140c8f3b190B5D67eAc6dc5760C46E9\n     * LINK token address:                0xa36085F69e2889c224210F603D836748e7dC0088\n     * Key Hash: 0x6c3699283bda56ad74f6b855546325b68d482e983852a7a82979cc4807b641f4\n     */\n     event DiceLanded(bytes32 indexed requestId, uint256 indexed result,address indexed usersAddress);\n    constructor() \n        VRFConsumerBase(\n            0x8C7382F9D8f56b33781fE506E897a4F1e2d17255, // VRF Coordinator\n            0x326C977E6efc84E512bB9C30f76E30c160eD06FB  // LINK Token\n        )\n    {\n        keyHash = \t0x6e75b569a01ef56d18cab6a8e71e6600d6ce853834d4a5748b720d06f878b3a4;\n        fee = 0.0001 * 10 ** 18; // 0.1 LINK (Varies by network)\n    }\n    \n    /** \n     * Requests randomness \n     */\n\n     receive() external payable {\n    }\n    function getRandomNumber(uint256 usersPick) public payable returns (bytes32 requestId) {\n        require(LINK.balanceOf(address(this)) >= fee, \"Not enough LINK - fill contract with faucet\");\n        address usersAddress=msg.sender;\n        uint userValue=msg.value;\n        bytes32 _requestId =requestRandomness(keyHash, fee,usersAddress,userValue,usersPick);\n        return _requestId;\n    }\n\n    /**\n     * Callback function used by VRF Coordinator\n     */\n    function fulfillRandomness(bytes32 requestId, uint256 randomness,address usersAddress,uint userValue,uint256 usersPick) internal override {\n    uint256 d20Value = randomness % 37;\n    randomResult=d20Value;\n    if(d20Value==usersPick){\n    address payable wallet = payable(usersAddress);\n    wallet.transfer(userValue*36);\n    }\n    emit DiceLanded(requestId, d20Value,usersAddress);\n    }\n\n    // function withdrawLink() external {} - Implement a withdraw function to avoid locking your LINK in the contract\n}\n",
  "sourcePath": "C:\\Users\\KEKW\\Desktop\\OtherProjects\\RouletteApp\\contracts\\RandomNumberConsumer.sol",
  "compiler": {
    "name": "solc",
    "version": "0.8.7+commit.e28d00a7.Emscripten.clang"
  },
  "schemaVersion": "3.4.3",
  "updatedAt": "2021-12-05T10:22:17.266Z",
  "networkType": "ethereum",
  "devdoc": {
    "kind": "dev",
    "methods": {},
    "version": 1
  },
  "userdoc": {
    "events": {
      "DiceLanded(bytes32,uint256,address)": {
        "notice": "Constructor inherits VRFConsumerBase  Network: Kovan Chainlink VRF Coordinator address: 0xdD3782915140c8f3b190B5D67eAc6dc5760C46E9 LINK token address:                0xa36085F69e2889c224210F603D836748e7dC0088 Key Hash: 0x6c3699283bda56ad74f6b855546325b68d482e983852a7a82979cc4807b641f4"
      }
    },
    "kind": "user",
    "methods": {},
    "notice": "Request testnet LINK and ETH here: https://faucets.chain.link/ Find information on LINK Token Contracts and get the latest ETH and LINK faucets here: https://docs.chain.link/docs/link-token-contracts/",
    "version": 1
  }
}